:020000040000FA
:100000000C94D3030C94FB030C94FB030C94FB03A0
:100010000C94FB030C94FB030C94FB030C940C0E4C
:100020000C94FB030C94FB030C94FB030C94FB0358
:100030000C94FB030C94FB030C94F70D0C94FB0342
:100040000C949C0A0C94FB030C94FB030C94FB0390
:100050000C94FB030C94050C0C94FB030C94FB0315
:100060000C94E60A0C94FB03000000002400270017
:100070002A0000000000250028002B0000000000DE
:1000800023002600290004040404040404040202DA
:100090000202020203030303030301020408102007
:1000A0004080010204081020010204081020000012
:1000B0000008000201000003040700000000000027
:1000C0000000616C636F64697374696C6C65727352
:1000D0002E7275004A6F686E4A6F686E6F76007692
:1000E000302E393500D0A2D0ADD09DD0B000D0A1F7
:1000F000D182D0B0D0B1D0B8D0BBD0B8D0B7D0B00A
:10010000D182D0BED18020D0BCD0BED189D0BDD0CC
:10011000BED181D182D0B8002020202020202020F4
:10012000202020202000D0A0D0B5D0BBD0B520D03A
:10013000B2D0BAD0BBD18ED187D0B5D0BDD0BE00A1
:100140002D2D2D2D2D2D2D2D2D2D2D2D2D2D2D2DDF
:100150002D2D2D2D2D002D2D2D2D2D2D3CD0A0D034
:10016000B0D0B7D0B3D0BED0BD213E2D2D2D2D2D7A
:100170002D002D2D2D2D2D2D2D2D2D2D2D2D2D2DDC
:100180002D2D2D2D2D2D2D002D2DD09DD0B5D0B464
:10019000D0BED181D1822ED0BDD0B0D0BFD1802EE3
:1001A00020D181D0B5D182D0B82D2D002D2D2D2D6F
:1001B0002DD090D0B2D0B0D180D0B8D18F20D18105
:1001C000D0B5D182D0B82D2D2D2D2D00202020206E
:1001D000002020202000202020200050D0BDD0BEB4
:1001E000D0BC202020202020D092D1820050D1836A
:1001F000D181D182202020202020D092D1823B208A
:100200002020202C20202500D09DD0B0D0BFD18030
:100210002ED181D0B5D182D0B8202020202020201E
:10022000202C2020D09200200052002020202000EE
:10023000D0A0D0B720D09FD180D0B8D0BDD18FD1A1
:1002400082D18C20D0B1D0B5D0B720D0B7D0B0D02B
:10025000BFD0B8D181D0B800D0A1D18220D09FD159
:1002600080D0B8D0BDD18FD182D18C20D0B1D0B5C3
:10027000D0B720D0B7D0B0D0BFD0B8D181D0B800DF
:10028000D0A1D18220D09FD180D0B8D0BDD18FD184
:1002900082D18C20D0B820D0B7D0B0D0BFD0B8D1C8
:1002A00081D0B0D182D18C00502B20D092D18BD074
:1002B000B1D0BED18000502D20D092D18BD0B1D002
:1002C000BED1800020D0A3D0BFD180D0B0D0B2D0DA
:1002D000BBD0B5D0BDD0B8D0B53A002D2D2D2D2D29
:1002E0002D2D2D2D2D2D2D2D2D2D2D2D2D2D2D2D3E
:1002F0000050D183D181D1823D202020202020D0E8
:1003000092D18200D092D18BD0B1D0B5D180D0B86B
:10031000D182D0B520D183D181D182D0B0D0B2D01A
:10032000BAD1830020202020002A2A2A2A00D0A027
:10033000D0B720D09FD180D0B8D0BDD18FD182D1BD
:100340008C20D0B1D0B5D0B720D0B7D0B0D0BFD0EE
:10035000B8D181D0B800D0A1D18220D09FD180D097
:10036000B8D0BDD18FD182D18C20D0B820D0B7D019
:10037000B0D0BFD0B8D181D0B0D182D18C00502BB9
:1003800020D0A3D0B2D0B5D0BBD0B8D187D0B5D013
:10039000BDD0B8D0B500502D20D092D18BD0B1D0E7
:1003A000BED1802FD183D0BCD0B5D0BDD18CD18867
:1003B000D0B5D0BDD0B8D0B50020D0A3D0BFD180AB
:1003C000D0B0D0B2D0BBD0B5D0BDD0B8D0B53A0047
:1003D0002D2D2D2D2D2D2D2D2D2D2D2D2D2D2D2D4D
:1003E0002D2D2D2D2D0050D0BDD0BED0BC3D2020B8
:1003F00020202020D092D1822C2028323330D0925D
:100400002900D092D18BD0B1D0B5D180D0B8D182D3
:10041000D0B52FD0B2D0B2D0B5D0B4D0B8D182D070
:10042000B52050D0BDD0BED0BC00050820B1000022
:1004300000000000002F00000007000700147F14D8
:100440007F14242A7F2A1223130864623649552216
:10045000500005030000001C2241000041221C0046
:1004600014083E081408083E08080000A0600008B0
:1004700008080808006060000020100804023E51CF
:1004800049453E00427F4000426151494621414575
:100490004B311814127F1027454545393C4A4949CC
:1004A0003001710905033649494936064949291E73
:1004B00000363600000056360000081422410014B1
:1004C000141414140041221408020151090632497F
:1004D00059513E7C1211127C7F494949363E4141B7
:1004E00041227F4141221C7F494949417F09090935
:1004F000013E4149497A7F0808087F00417F410059
:100500002040413F017F081422417F404040407F0E
:10051000020C027F7F0408107F3E4141413E7F096B
:100520000909063E4151215E7F091929464649497C
:10053000493101017F01013F4040403F1F204020E1
:100540001F3F4038403F63140814630708700807D2
:100550006151494543007F41410001060830400098
:1005600041417F000402010204404040404000033A
:1005700005000020545454787F484444383844449B
:100580004420384444487F3854545418087E0901A4
:100590000218A4A4A47C7F0804047800447D4000D1
:1005A0004080847D007F1028440000417F40007C13
:1005B000041804787C080404783844444438FC2443
:1005C00024241818242418FC7C08040408485454D3
:1005D0005420043F4440203C4040207C1C204020CC
:1005E0001C3C4030403C44281028441CA0A0A07C67
:1005F0004464544C4400107C82000000FF00000062
:10060000827C100008040810087C1211127C7F49BB
:100610004949317F4545453A7F01010103603F214A
:100620003F607F49494941730C7F0C732141494D1B
:10063000337F1008047F7E2011087E7F081422413A
:10064000403F01017F7F0608067F7F0808087F3E44
:100650004141413E7F0101017F7F090909063E4179
:1006600041412203017F010361261806011C227FFC
:10067000221C63140814633F20203F600708080809
:100680007F7F407F407F3F203F207F017F48483071
:100690007F4878007F7F484830004149492A1C7FC5
:1006A000103E413E661909097F20545478403E4966
:1006B0004545387E4A4A34007C04040C00384545E0
:1006C000493E38545454184C307C304C24424A34FF
:1006D000007C20107C007C21117C007C10284400D0
:1006E000403C04047C7C0810087C7C10107C0038A2
:1006F000444444387C04047C00FC18242418384406
:1007000044442804047C04044C9090907C18247E7B
:10071000241844281028443C20203C601C10107CE5
:10072000007C407C407C3C203C207C047C50700061
:100730007C5070007C7C50700000424252523C7CE5
:1007400010384438402C127E007E4B4A4B423855BC
:100750005455187C0405040000780A09003E4949F4
:100760004122385454442800417F410000447D40D8
:100770000000457C450000457C41002344390403CA
:1007800024493209047E020202017C0404020000B2
:100790004A552900000609090644445F44447C1078
:1007A000103C4000171411241FBECFEFD8E0DEBF6D
:1007B000CDBF11E0A0E0B1E0E2EEF5E302C00590AC
:1007C0000D92A233B107D9F722E0A2E3B1E001C054
:1007D0001D92A337B207E1F713E0C3EDD3E004C0E5
:1007E0002197FE010E94E91AC23DD107C9F70E9474
:1007F0003A140C94EF1A0C94000008950895833075
:1008000081F028F4813099F08230A9F00895873082
:10081000A9F08830C9F08430B1F4809180008F7DD8
:1008200003C0809180008F7780938000089584B505
:100830008F7784BD089584B58F7DFBCF8091B00004
:100840008F778093B00008958091B0008F7DF9CFAD
:10085000CF93DF93282F30E0F901E255FF4F8491C9
:10086000F901E656FF4FD491F901EA57FF4FC491C1
:10087000CC23A1F081110E94FF03EC2FF0E0EE0FDA
:10088000FF1FE458FF4FA591B491EC91ED2381E057
:1008900090E009F480E0DF91CF91089580E090E04E
:1008A000FACF1F93CF93DF93282F30E0F901E25561
:1008B000FF4F8491F901E656FF4FD491F901EA57B1
:1008C000FF4FC491CC23A9F0162F81110E94FF0382
:1008D000EC2FF0E0EE0FFF1FEE58FF4FA591B49103
:1008E0008FB7F894EC91111108C0D095DE23DC93FA
:1008F0008FBFDF91CF911F910895DE2BF8CFCF935B
:10090000DF9390E0FC01E656FF4F24918A579F4FFA
:10091000FC0184918823D1F090E0880F991FFC019D
:10092000E859FF4FA591B491FC01EE58FF4FC591D6
:10093000D491623071F49FB7F8943C91822F8095E6
:1009400083238C93E8812E2B28839FBFDF91CF9147
:1009500008958FB7F894EC912E2B2C938FBFF6CF80
:100960003FB7F8948091C7019091C801A091C90147
:10097000B091CA0126B5A89B05C02F3F19F001967A
:10098000A11DB11D3FBFBA2FA92F982F8827BC01E9
:10099000CD01620F711D811D911D42E0660F771F11
:1009A000881F991F4A95D1F70895803D91F068F40A
:1009B000823C79F09091C10191110FC090EE980F97
:1009C0009F3508F475C08AE20895813D11F0823D9B
:1009D00089F78093C1018FEF0895903DD9F410926B
:1009E000C10190E7980F903310F481510895813838
:1009F00009F443C0833809F442C0843809F441C083
:100A0000863809F440C0873809F43FC08E38D9F6DB
:100A100089EC0895913DB1F41092C10190E8980FCE
:100A2000903110F4815D0895813989F1833989F11C
:100A3000843989F1863989F1873989F18E3919F636
:100A40008AEC0895923D49F41092C101803949F130
:100A5000813909F0B8CF8CEC0895923C09F0B3CFFE
:100A60001092C101873AF9F0803BF9F0813BF9F02F
:100A7000853B09F0A8CF80ED08958FEB089581ECB8
:100A8000089583EC089585EC089587EC089580EC33
:100A9000089582EC089584EC089586EC089588EC1E
:100AA00008958BEC08958DEC08958EEC08958FECED
:100AB000089520919E01260F3327331F21323105DF
:100AC000ECF420912502FC0190E080E0243069F0F4
:100AD00082E00895A0919E012191AC0142585E4FA1
:100AE000A40FB52FB11D2C930196861798F3809112
:100AF0009E01680F60939E0180E0089581E0089553
:100B00001092250281E0809324021092FF0161E09F
:100B100082E10E94510461E083E10E945104E9EB0B
:100B2000F0E080818E7F808380818D7F808388E468
:100B30008093B80085E48093BC000895CF93DF9341
:100B400091E090937D018823B9F0C091B800D091D5
:100B5000BA008091BC008A7B8093BC0060E082E197
:100B60000E94510460E083E10E9451040E948005CC
:100B7000D093BA00C093B800DF91CF910895CF927F
:100B8000DF92EF92FF920F931F93CF93DF93D09159
:100B90004E0281E0D13208F09CC0C0914D020E940B
:100BA000B0046B017C018091250281116CC082E050
:100BB0008093250281E0809324028FEF80932302AB
:100BC00010922202D0932102ADE2B2E0E1E0F2E025
:100BD00080E0D8138DC01092000280910002CC0FEB
:100BE000C82BC09300028091FF01813009F084C0BE
:100BF0001092FF010E94B0046B017C018091000201
:100C00008093BB008091270290912802A091290235
:100C1000B0912A02892B8A2B8B2BA1F00E94B00461
:100C200000912702109128022091290230912A0276
:100C30006C197D098E099F090617170728073907C0
:100C400008F442C08091BC0083FDD8CF85EC80932E
:100C5000BC000E94B0046B017C01809125028230AF
:100C600009F44CC0809123028F3F09F469C0809140
:100C70002302803209F466C080912302803309F494
:100C800063C084E026C08091270290912802A09141
:100C90002902B0912A02892B8A2B8B2B09F483CF4E
:100CA0000E94B0040091270210912802209129028D
:100CB00030912A026C197D098E099F0906171707C2
:100CC0002807390708F06FCF809126020E949E0501
:100CD00085E010922C0210924E0210922B02DF91AE
:100CE000CF911F910F91FF90EF90DF90CF900895DB
:100CF0009D9191938F5F6DCF85EEA9CF8091270253
:100D000090912802A0912902B0912A02892B8A2B66
:100D10008B2B09F4A2CF0E94B004009127021091FE
:100D200028022091290230912A026C197D098E092E
:100D30009F09061717072807390708F08ECFC4CF79
:100D400080E0C7CF82E0C5CF83E0C3CF0895E091B4
:100D5000D0018091CF01E81730F4F0E0E35AFE4F64
:100D6000808190E008958FEF9FEF08959091D001DA
:100D70008091CF012FEF3FEF981748F4E92FF0E073
:100D8000E35AFE4F208130E09F5F9093D001C9016C
:100D900008958091CF019091D001891B990B0895FE
:100DA000CF92DF92EF92FF920F931F93CF93DF9337
:100DB0007C01CB018A0120912B02222389F0EB01D7
:100DC0006B01C40ED51ECC15DD0569F06991D70104
:100DD000ED91FC910190F081E02DC7010995F3CFD1
:100DE000642F0E945905C801DF91CF911F910F9187
:100DF000FF90EF90DF90CF900895CF93DF931F92F5
:100E0000CDB7DEB7698320912B022223F9F0209120
:100E10004E02203258F021E030E0FC01338322837F
:100E200090E080E00F90DF91CF91089580912C02A7
:100E3000E82FF0E0E35DFD4F998190838F5F809311
:100E40002C0280934E0281E090E0ECCF61E0CE0175
:100E500001960E945905F7CF682F85E692E00C9421
:100E6000FD06CF93C82F81E080932B028CE3809303
:100E70004D0210922C0210924E0280E890E00E94E7
:100E80002C076C2F85E692E00E94FD06CF910C9412
:100E9000BF05CF93DF9387FD22C090916202891333
:100EA00004C0909163029617D1F0D62FC82F82E02C
:100EB0008C0F8F700E9431078C2F90E0029624E0F7
:100EC000959587952A95E1F7805F0E94310780EB21
:100ED0008D0F0E943107C0936202D0936302DF91AD
:100EE000CF9108950F931F93CF93DF93C0E011E04C
:100EF0000CE36C2F80E00E94490710932B020093B3
:100F00004D0210922C0210924E0280E490E00E945A
:100F10002C07D0E08D2F8F708F3071F40E94BF05A9
:100F200010932B0200934D0210922C0210924E024D
:100F300080E490E00E942C0790E080E00E942C0763
:100F4000DF5FD03839F70E94BF05CF5FC83089F620
:100F5000DF91CF911F910F910895BF92CF92DF92B1
:100F6000EF92FF920F931F93CF93DF93EC01862FA5
:100F700091E090935002642F0E944907DD24D3949E
:100F80008CE3C82E95E0B92EFE012491222309F4AA
:100F90003FC0219684910E94D504182F8F3FA1F362
:100FA000D0922B02C0924D0210922C0210924E024F
:100FB00080E490E00E942C076091640285E692E054
:100FC0000E94FD06212F2052330BC901B89E9001CB
:100FD000B99E300D112410E000E0C901825D9B4FE5
:100FE0007C01F701E00FF11FE491809164028E27EC
:100FF00090E00E942C070F5F1F4F0530110589F705
:10100000809162028A5F809362020E94BF05BCCF1A
:10101000DF91CF911F910F91FF90EF90DF90CF90D4
:10102000BF900895BF92CF92DF92EF92FF920F93FD
:101030001F93CF93DF938C01862F91E09093500202
:10104000642F0E944907E801DD24D3948CE3C82E65
:1010500095E0B92E8991882309F43DC00E94D504FA
:10106000182F8F3FB9F3D0922B02C0924D021092ED
:101070002C0210924E0280E490E00E942C076091B6
:10108000640285E692E00E94FD06212F2052330B78
:10109000C901B89E9001B99E300D112410E000E006
:1010A000C901825D9B4F7C01F701E00FF11FE491C4
:1010B000809164028E2790E00E942C070F5F1F4FE3
:1010C0000530110589F7809162028A5F8093620280
:1010D0000E94BF05BFCFDF91CF911F910F91FF906D
:1010E000EF90DF90CF90BF9008954F925F926F92F4
:1010F0007F928F929F92AF92BF92CF92DF92EF92A8
:10110000FF920F931F93CF93DF938C0182E0809324
:1011100050026FEF8FEF0E94490770906202E80162
:10112000580166246394BCE35B2E15E0412E8824AD
:101130008394912CF50181915F01882309F470C09B
:101140000E94D504182F8F3FA9F360922B02509272
:101150004D0210922C0210924E0280E490E00E9408
:101160002C07FEE7F71570F06091640285E692E0C7
:101170000E94FD066091640285E692E00E94FD06F1
:1011800073947394212F2052330BC901489E900110
:10119000499E300D112410E000E0C901825D9B4F93
:1011A0006C019EE79715A0F1F601E00FF11FE491A5
:1011B00030E020E0F12CE12C0E2E000CFF0BC401DE
:1011C000022E02C0880F991F0A94E2F78E239F23F4
:1011D000022E02C0880F991F0A94E2F7AC01440F57
:1011E000551F842B952BE82AF92A2F5F3F4F283073
:1011F000310529F7809164028E2590E00E942C072A
:10120000809164028E2590E00E942C077394739461
:101210000F5F1F4F0530110521F60E94BF058ACFD1
:10122000609163026F5F809162020E944907992476
:1012300093947CE3872EE5E07E2EAA24A394B12C20
:101240008991882309F478C00E94D504182F8F3F14
:10125000B9F390922B0280924D0210922C021092C0
:101260004E0280E490E00E942C07809162028F374A
:1012700088F46091640285E692E00E94FD06609128
:10128000640285E692E00E94FD06809162028E5F14
:1012900080936202E12FE052FF0B7E9E90017F9EC1
:1012A000300D112410E000E0C901825D9B4F6C01FC
:1012B000809162028F37B8F5F601E00FF11FE491DB
:1012C00030E020E0F12CE12C0E2E000CFF0BC501CC
:1012D000022E02C0880F991F0A94E2F78E239F23E3
:1012E000022E02C0880F991F0A94E2F7AC01440F46
:1012F000551F842B952BE82AF92A2F5F3F4F283062
:10130000310529F7809164028F2590E00E942C0717
:10131000809164028F2590E00E942C0780916202E8
:101320008E5F809362020F5F1F4F0530110509F039
:10133000BFCF0E94BF0584CF60916302615080914E
:101340006202DF91CF911F910F91FF90EF90DF909C
:10135000CF90BF90AF909F908F907F906F905F9055
:101360004F900C9449074F925F926F927F92BF9279
:10137000CF92DF92EF92FF920F931F93CF93DF9361
:10138000CDB7DEB72A970FB6F894DEBF0FBECDBF3C
:101390006B017C01842F10926102622F0E94490729
:1013A0001A821982FE01339688E0DF011D928A9528
:1013B000E9F700E08AE0482E512C612C712CC11411
:1013C000D104E104F104B1F5A0916102E1E0EA0F7A
:1013D000E0936102B0E0A15BBD4F80E312968C9375
:1013E000F0E0E15BFD4F1282809150028130E9F420
:1013F0004FEF6FEF81E592E00E941208BB24B39497
:101400008B2D2A960FB6F894DEBF0FBECDBFDF91AD
:10141000CF911F910F91FF90EF90DF90CF90BF90F1
:101420007F906F905F904F90089581E592E00E94C9
:101430007508E4CFBB24B394B00EE1E0F0E0EC0F0C
:10144000FD1FE00FF11D8F01C701B601A30192013D
:101450000E94B01AD8016C9369017A010B2DC11456
:10146000D104E104F10431F7E0916102A1E0B0E0C0
:10147000AC0FBD1FAB0DB11D0E0F1197E01779F02A
:1014800091E09E0FF0E0E15BFD4F8C91805D8283E7
:10149000E92FF0E0E15BFD4F1282E92FEECFE09300
:1014A000610280915002813039F44FEF6FEF81E596
:1014B00092E00E941208A4CF81E592E00E94750894
:1014C0009FCF90E080E0089585ED8093BC008091EF
:1014D000270290912802A0912902B0912A02079632
:1014E000A11DB11D23E0B695A795979587952A95DF
:1014F000D1F72091BC0024FD03C01092250208956D
:1015000040912702509128026091290270912A028D
:10151000452B462B472B69F30097A105B10541F0F8
:1015200025E32A95F1F700000197A109B109E1CF60
:10153000809126020C949E051F920F920FB60F9277
:1015400011242F933F938F939F93AF93BF938091D9
:10155000C3019091C401A091C501B091C601309121
:10156000C20123E0230F2D3758F50196A11DB11DAF
:101570002093C2018093C3019093C401A093C5013D
:10158000B093C6018091C7019091C801A091C90193
:10159000B091CA010196A11DB11D8093C70190931E
:1015A000C801A093C901B093CA01BF91AF919F91A7
:1015B0008F913F912F910F900FBE0F901F90189514
:1015C00026E8230F0296A11DB11DD2CF1F920F92C4
:1015D0000FB60F9211242F933F934F935F936F9306
:1015E0007F938F939F93AF93BF93EF93FF938091DC
:1015F000B900887F803609F44AC0F0F5883209F4D2
:10160000A7C018F5803109F49BC0B8F4882309F409
:10161000F9C0883009F494C0FF91EF91BF91AF9168
:101620009F918F917F916F915F914F913F912F91FA
:101630000F900FBE0F901F901895883109F488C045
:10164000803251F78093230214C0803409F49DC086
:1016500040F48033B9F38833F9F68093230285ECA4
:10166000B0C0803509F485C0883509F496C0883447
:1016700099F60E94640AD0CF883909F48CC038F5F5
:10168000883729F050F4883611F0803729F683E046
:10169000809325021092C00157C0883809F47BC09E
:1016A000803919F0803809F0B7CF8091C0018032BD
:1016B00008F071C0E091C00181E08E0F8093C001FD
:1016C0008091BB00F0E0E056FE4F80833DC0803B40
:1016D00039F0E0F4803A09F479C0883A09F09CCFF7
:1016E00084E08093250210929F0110929E01E09168
:1016F000CD01F091CE01099580919E0181110FC01D
:1017000081E080939E0110927E0109C0803C09F423
:10171000A6CF883C09F4A3CF883B09F07DCFE091A8
:101720009F0181E08E0F80939F01F0E0E258FE4F11
:1017300080818093BB0090919F0180919E0129C080
:10174000809100028093BB0085EC8093BC0064CF45
:101750009091220280912102981758F5E09122027F
:1017600081E08E0F80932202F0E0EF5FFD4F8081D9
:10177000E9CFE091220281E08E0F809322028091D6
:10178000BB00F0E0EF5FFD4F8083909122028091DB
:1017900021029817C8F285E8D8CFE091220281E0B3
:1017A0008E0F809322028091BB00F0E0EF5FFD4F2F
:1017B00080838091240281115CCF81E08093FF01BE
:1017C00084EA8093BC001092250226CF85EC80939A
:1017D000BC00109225028091C001803230F4E0916B
:1017E000C001F0E0E056FE4F10826091C00170E051
:1017F000E091CB01F091CC0180EA91E00995109243
:10180000C0010ACF1092230234CF1F920F920FB65D
:101810000F9211248F929F92AF92BF92CF92DF923C
:10182000EF92FF922F933F934F935F936F937F932A
:101830008F939F93AF93BF93CF93DF93EF93FF93D8
:101840008091780020917900322F282F8091B2006A
:10185000211562E0360708F46DC13250B90140919C
:101860005B0150915C01C0905701D0905801E0900D
:101870005901F0905A01641B750BAB01770F660B91
:10188000770B4C0D5D1D6E1D7F1D409357015093CE
:1018900058016093590170935A014091570150913A
:1018A00058016091590170915A01E5E0759567956D
:1018B00057954795EA95D1F79091FC0190FD45C168
:1018C00057FD43C1A0915B01B0915C011A161B0644
:1018D0000CF43BC1A0915B01B0915C01A417B5076A
:1018E00009F433C110925601109255019091FD01F7
:1018F0009E7F9093FD01909154019F5F90935401BE
:10190000923359F5C0905001D0905101E0905201AE
:10191000F0905301C092F801D092F901E092FA01DF
:10192000F092FB019091FC0198609093FC01E09192
:101930004E01F0914F01F093F701E093F601109200
:101940004F0110924E0110925001109251011092CD
:10195000520110925301109254019091FC01916038
:101960009093FC0190E0089676E0880F991F7A9595
:10197000E1F7092E000CAA0BBB0BE091FC01E2FD84
:101980000CC0E0917102F09172028E1B9F0BA109B5
:10199000B10980549109A109B10980904A01909040
:1019A0004B01A0904C01B0904D016C017D01E5E030
:1019B000F594E794D794C794EA95D1F7C80CD91C4D
:1019C000EA1CFB1CC0924A01D0924B01E0924C01F0
:1019D000F0924D01E0917102F09172026C017D0173
:1019E000F594E794D794C794EC0DFD1DF093720223
:1019F000E0937102C0904A01D0904B01E0904C01FD
:101A0000F0904D01E0917102F0917202EC0DFD1D1C
:101A1000F0937202E0937102C0904601D0904701AA
:101A2000E0904801F0904901C0917102D09172029A
:101A30004C015D018C189D08AE08BF08750164015A
:101A400062E0F594E794D794C7946A95D1F7CC0DEA
:101A5000DD1DD0937202C093710280934601909372
:101A60004701A0934801B093490180917102909180
:101A70007202813C9F4308F4AFC080EC9FE39093D7
:101A8000720280937102809171029091720265E0FE
:101A9000969587956A95E1F7B0E0A0E00196A11DC3
:101AA000B11DB595A7959795879580931A01509389
:101AB0005C0140935B0178948091500190915101B9
:101AC000A0915201B0915301229FA001239F500D7C
:101AD000500D1124840F951FA11DB11D809350013D
:101AE00090935101A0935201B093530180914E0104
:101AF00090914F01019690934F0180934E01FF9179
:101B0000EF91DF91CF91BF91AF919F918F917F9195
:101B10006F915F914F913F912F91FF90EF90DF90E8
:101B2000CF90BF90AF909F908F900F900FBE0F906F
:101B30001F90189540E052E04A01821A930A9401DE
:101B400066277727681979098ACE8091FC018E7FF4
:101B50008093FC01809155019091560101969093DC
:101B60005601809355018838934109F0A0CF8091A8
:101B7000FD0181608093FD01109256011092550184
:101B80008BE980931A018091FD018B7F8093FD0189
:101B90001092F4018091FC018F7E8093FC01809172
:101BA000FC018F7D8093FC011092190110921801A5
:101BB00010924F0110924E0110925001109251015B
:101BC0001092520110925301109254018091FD0124
:101BD00080628093FD016BCF8091710290917202BF
:101BE000803C9F4108F04FCF80EC9FE148CF1F928F
:101BF0000F920FB60F9211248F93EF93FF93EAE7A2
:101C0000F0E0808180648083FF91EF918F910F904D
:101C10000FBE0F901F9018951F920F920FB60F9244
:101C200011242F923F924F925F926F927F928F92E8
:101C30009F92AF92BF92CF92DF92EF92FF920F935B
:101C40001F932F933F934F935F936F937F938F9344
:101C50009F93AF93BF93EF93FF93CF93DF93CDB752
:101C6000DEB7A097DEBFCDBF8091FD0182FF12C01D
:101C70008091FC0185FD0EC0809132018F5F8093C1
:101C80003201823339F48091FC0180628093FC013F
:101C9000109232018091FD0181FF12C08091FD01FF
:101CA00082FD0EC0809132018F5F809332018233BA
:101CB00039F48091FD018D7F8093FD0110923201F6
:101CC0008091F401882309F4F0C08091FD0181FF27
:101CD00003C088EC8093F4018091F40120913601D7
:101CE00030913701820F932F911D9093350180938E
:101CF00034018091FC0182FFC4C09091FC01929557
:101D0000917080913301891B80933301809134015C
:101D10009091350184369105B4F080913301882388
:101D200009F4B7C08091FC0182FF04C080913301A7
:101D300087FDAFC08091FC0182FD05C08091330119
:101D400018160CF4A6C08091FC018F7E8093FC01D4
:101D50008091340190913501909337018093360141
:101D60008091FC0184FFA7C05C9A8091FC0185FFF3
:101D7000A4C05E9A8091FC0182608093FC019091E6
:101D8000FC018091FC018B7F92FF84608093FC01B9
:101D900080911A018093B30078948091450186FF69
:101DA0000CC080914201909143016FEF0E94731922
:101DB000809145018F7B809345018AE00E94280431
:101DC000FF24F394892B09F0F12C80914501F0FA5E
:101DD00080F98093450189E00E94280411E0892B55
:101DE00009F010E08091450110FB81F980934501D5
:101DF0008CE00E94280401E0892B09F000E080912A
:101E0000450100FB82F9809345018BE00E94280484
:101E100021E0892B09F020E08091450120FB83F926
:101E2000809345018F2D810F800F820F39F490919F
:101E30004101992319F09150909341019091FD0136
:101E400093FB992790F9891366C0812F880F000FA3
:101E5000000F800F8F0D220F220F220F820F8F7025
:101E600090914401907F982B90934401292F2295C3
:101E70002F70821324C0809140018F5F80934001B6
:101E800027C08091FC018295817090913301890F68
:101E90003BCF8091FC0180618093FC0180913401F3
:101EA00090913501885C910957CF8091FC018F7E1C
:101EB0008093FC0155CF5C9858CF5E985BCF21E0B2
:101EC000209340018295807F9F70892B80934401ED
:101ED00080914001853109F0E2C09091FD01892F88
:101EE000881F8827881F9091FE019170990F982B69
:101EF000809144018F70913009F4FBC2923009F057
:101F000004C4823009F419C168F48130D1F18091A0
:101F1000FD018860DBC280914001815009F0AECFA5
:101F200081E0ACCF843009F43CC1883081F7609007
:101F3000F1017090F201B0E16B16B7E27B0608F098
:101F4000C2C22091450124FF32C18091D10190E0AD
:101F5000FC01EE0FFF1FEE52FE4F408151816416CF
:101F6000750609F45CC4019732978F3F9807A9F76B
:101F70008091ED018093D1018091FD0125FB84F9D1
:101F800020C18091450184FFC3C02091410180910F
:101F9000F1019091F201253108F4AAC0853691052E
:101FA00038F0845691099093F2018093F10103C0B7
:101FB0008AE080934101809141018F5F80934101CC
:101FC00081E08093400180914401807F80934401AF
:101FD0008091F1019091F201880F991FB0E0A0E08B
:101FE0008093E4019093E501A093E601B093E701AB
:101FF000A091F5012091E4013091E5014091E601C5
:102000005091E701B0E00E94DE1A6093E401709302
:10201000E5018093E6019093E7016091E4017091FE
:10202000E5018091E6019091E70128EC30E040E085
:1020300050E00E948E1A2093E4013093E501409312
:10204000E6015093E7018091E4019091E501A091B0
:10205000E601B091E7010196A11DB11D8093E40155
:102060009093E501A093E601B093E7018091E4012C
:102070009091E501A091E601B091E701B695A79591
:10208000979587958093E4019093E501A093E601ED
:10209000B093E7018091FD0180628093FD01A096DD
:1020A0000FB6F894DEBF0FBECDBFDF91CF91FF9189
:1020B000EF91BF91AF919F918F917F916F915F91C0
:1020C0004F913F912F911F910F91FF90EF90DF90D3
:1020D000CF90BF90AF909F908F907F906F905F90C8
:1020E0004F903F902F900F900FBE0F901F9018951C
:1020F0002B3040F08B30910510F00A9754CF10929E
:10210000410159CF019709F04ECF81E090E04BCFCC
:102110008091ED018F5F8093ED019091D10198172F
:1021200010F41092ED01E091ED01F0E0EE0FFF1FD1
:10213000EE52FE4F8081918136CF209141018091F6
:10214000F1019091F2012531C0F08C599F4F90938D
:10215000F2018093F1018031974230F08FE097E2F5
:102160009093F2018093F101809145018061809309
:1021700045012F5F2093410123CF2B3048F00A9671
:102180009093F2018093F1018031974238F7ECCFC0
:1021900001969093F2018093F10180319742F0F61D
:1021A000E3CF80914501806280934501C0CE80914C
:1021B000ED018093D1012F7D209345018091FD0198
:1021C00080618093FD011092ED018091FD0184FFFB
:1021D0005AC18E010F5F1F4F88E1D8011D928A9569
:1021E000E9F78091D101BEE78B9FC0011124409691
:1021F00090933B0180933A0180913A0190913B0189
:1022000083589F4F90933D0180933C0180913C0106
:1022100090913D010E9465198F3F09F463C0C09001
:102220003C01D0903D01E4E0CE1AD108F12C809120
:102230003C0190913D018C159D0510F1C6010E9455
:1022400065198F3FC9F02F2D0F2C000C330BF901AE
:10225000EE0FFF1FE00FF11F90E091838083F901E3
:102260003696EE0FFF1FE00FF11FD182C082F3946C
:10227000F4E0FF1508F466C02FEFC21AD20AD7CFD8
:1022800034E03F150CF45EC0C0903A01D0903B01A1
:1022900080913A0190913B010396C816D90608F047
:1022A0004EC0C6010E9465198F3FC1F02F2D0F2C23
:1022B000000C330BF901EE0FFF1FE00FF11F90E050
:1022C00091838083F9013696EE0FFF1FE00FF11F17
:1022D000D182C082F39474E07F15A0F18FEFC81A09
:1022E000D80AD6CFC0903A01D0903B01F12C809112
:1022F0003C0190913D018C159D0508F1C6010E949D
:1023000065198F3FC1F02F2D0F2C000C330BF901F5
:10231000EE0FFF1FE00FF11F90E091838083F90122
:102320003696EE0FFF1FE00FF11FD182C082F394AB
:1023300094E09F1538F0AFEFCA1ADA0AD8CFFF2021
:1023400009F4CEC08FEF8F0D882E912CF4013696B4
:10235000EE0FFF1FE00FF11F2081318130933F010D
:1023600020933E0120913E0130913F012F5F3F4F6E
:1023700030933F0120933E0140913C0150913D013B
:102380004217530740F420913A0130913B013093BA
:102390003F0120933E01843031F48D859E859093DA
:1023A000390180933801FE017996F8A3EF8F86E01A
:1023B00011928A95E9F7E0E0AE2EE1E0BE2EAE0183
:1023C000475E5F4FFCE02F2EF1E03F2ECA01D501A2
:1023D0009801280170E060E0F201E190F1902F0196
:1023E000CD90DC901197CE14DF0421F4FC01F08035
:1023F000F394F0826F5F7F4F861697066CF7129604
:1024000001962A163B0621F7A0E0B1E090E080E0BB
:1024100001968C0179E1E72EF12CEC0EFD1EE00E09
:10242000F11EF7016081662309F453C0CD90DC9062
:102430001197000F111F00501F4FF801608171812B
:1024400011967C936E93DD24D182C082FA01608163
:10245000F701608312964F5F5F4F85309105C1F69B
:1024600090E080E0D9014D915D919D01F50141938E
:1024700051935F011A964D915C9153874287019663
:10248000881699067CF78091450185FF0DC08091E3
:10249000D10190E0B301880F991F0E9485198091A6
:1024A00045018F7D809345018091FD018F77809359
:1024B000FD018091FE018E7F8093FE018091FD01E0
:1024C00080648093FD018091FD01877F8093FD01F1
:1024D00077CD0F5F1F4F0630110509F09BCFBACFA4
:1024E00080913A0190913B0190933F0180933E018E
:1024F000CACF8230F9F070F4813009F008CD8091B4
:10250000ED018F5F8093ED01863008F459CD109274
:10251000ED0156CD8430D1F0883009F0F8CCE0914F
:10252000ED01F0E0EE0FFF1FE050FF4F8081809340
:10253000F501BACF8091ED019FEF980F9093ED01D7
:1025400081113ECD85E08093ED013ACDE091ED0122
:10255000F0E0EE0FFF1FE050FF4F80818093F50108
:102560008091FD0184FFA0CFE091ED01F0E0EE0F3E
:10257000FF1FE45FFE4F80819181892B09F094CF8A
:10258000E091ED0180913E0190913F01F0E0EE0F6E
:10259000FF1FE050FF4F60810E947319E091ED0131
:1025A00080913E0190913F01F0E0EE0FFF1FE45F4C
:1025B000FE4F9183808380913E0190913F0101966F
:1025C00090933F0180933E0120913C0130913D0169
:1025D0002817390740F480913A0190913B0190937C
:1025E0003F0180933E018091ED01853009F05CCF81
:1025F0008091380190913901892B09F478C080913C
:10260000380190913901892B69F0809145018064EE
:102610008093450180913801909139019093430155
:10262000809342018091000190910101E0E0F1E08E
:102630002AE031E04281538141935193448555858D
:10264000538742872E173F07A9F7992790930B01CD
:1026500080930A0110921701109216018091ED01EA
:1026600081508093ED0180910C0190910D01909328
:1026700039018093380118CF2150310981E090E071
:1026800060E082179307B4F5AC01440F551F445F17
:102690005E4FDA010D911C916C01B1E0CB1AD108AB
:1026A000DC01AA0FBB1FA65FBE4FED90FC901197F7
:1026B0000E151F05D0F4FA01F182E0820D931C93F0
:1026C000DC01AA0FBB1FA050BF4F4D915C91119729
:1026D000F601EE0FFF1FE050FF4F608171816D9397
:1026E0007C9355275183408361E00196CACF25E052
:1026F00030E0C4CF6111C0CF80910C0190910D01E9
:1027000090933901809338017ACF823009F44DC01B
:1027100070F4813009F0FBCB8091F501882309F436
:102720004FCC8091F50181508093F50149CC8430E4
:1027300009F444C0883009F0EACB8091FD01817032
:102740002091FC0127FB222720F99091FD0192FBAB
:10275000992790F9822B892B9091FD019B7F80FF17
:1027600094609093FD018091FD0182FB882780F9A0
:102770009091FD0196959170892B9091FD0180FBC0
:1027800091F99093FD018091FD0182FB882780F9EA
:102790009091FC0195FB992790F989239091FC0178
:1027A00080FB95F99093FC018ECE8091F501883CD9
:1027B00008F006CC8091F5018F5FB6CF8091F501CE
:1027C000811104C08091FD01806871CEECE0F1E0E0
:1027D00080E091E04091F501329122914217130679
:1027E00089F08E179F07B1F78091F50190E09093E3
:1027F0000B0180930A01109217011092160185E0D7
:102800008093ED011092F5018091FD018B7F809303
:10281000FD018091FC018F7D8093FC0154CE80935B
:10282000D101809145018F7D80934501C7CCEFE4B4
:10283000F2E081E08183128A138A148A158AE5E620
:10284000F2E01382128288EE93E0A0E0B0E084838D
:102850009583A683B7838FE191E0918380838091F4
:102860001A0120E4829FC001112490937202809388
:1028700071020895789484B5826084BD84B58160C6
:1028800084BD85B5826085BD85B5816085BD80913B
:102890006E00816080936E001092810080918100B3
:1028A00082608093810080918100816080938100AB
:1028B000809180008160809380008091B10084606D
:1028C0008093B1008091B00081608093B0008091CE
:1028D0007A00846080937A0080917A00826080938D
:1028E0007A0080917A00816080937A0080917A00EA
:1028F000806880937A001092C1008091FD018F77EB
:102900008093FD018091FE0181608093FE0161E072
:1029100084E00E947F0461E086E00E947F0460E022
:1029200084E00E94510460E086E00E94510461E06E
:1029300088E00E947F0460E088E00E94510462E029
:102940008AE00E947F0462E089E00E947F0462E0E6
:102950008CE00E947F0462E08BE00E947F04109272
:102960007C0080917C00806480937C0080917C005E
:1029700080937C0080917A00876080937A008091B8
:102980007A00886080937A0080917A0080688093D2
:102990007A0014BC15BC84B5826084BD85B58360A3
:1029A00085BD81E387BD80916E00826080936E005B
:1029B0001092B0001092B1008091B00082608093BC
:1029C000B0008091B10087608093B1008BE9809363
:1029D000B30080917000826080937000789490E0E2
:1029E00080E02091FC0121FBEE24E0F8F12C8E0D1B
:1029F0009F1D2091FC012D7F2093FC0184319105C6
:102A000081F72091FC0126952170C22F20E0D22F62
:102A10008C0F9D1F2091FC012D7F2093FC018E3196
:102A2000910578F31092D0011092CF0110922C02F0
:102A300010924E020E9480058DEF93E09093CE019C
:102A40008093CD018EEF93E09093CC018093CB01E6
:102A50008091B8008CE08093B80082E080934F02B0
:102A600080E20E94310782E00E9431070E947207D3
:102A700060E080E00E9449078EEA0E94310785ED00
:102A80000E94310780E80E94310788EA0E943107DE
:102A90008FE30E94310783ED0E94310780E00E949E
:102AA000310780E40E9431078DE80E94310784E1FC
:102AB0000E94310780E20E94310780E00E943107C6
:102AC00081EA0E94310788EC0E9431078AED0E945A
:102AD000310782E10E94310781E80E9431078FECC3
:102AE0000E94310789ED0E94310781EF0E94310772
:102AF0008BED0E94310780E40E94310784EA0E9436
:102B0000310786EA0E9431078FEA0E9431070E944E
:102B1000720740E061E08EEE90E00E94AD0741E078
:102B200064E385EE90E00E94AD0743E061E38FED42
:102B300090E00E94AD0745E062E284ED90E00E94E3
:102B4000AD0747E06DE082EC90E00E94AD0782EDBA
:102B5000E82E81E0F82ED0E0C0E0CE01880F991F6A
:102B60000E946D19F701819391937F01C093D10168
:102B70009093F2018093F101019609F07EC12097B4
:102B800051F0CC0FDD1FC053DE4F888199819093A7
:102B9000F2018093F10190E080E02091FC0121FBA3
:102BA000002700F910E0800F911F2091FC012D7F7C
:102BB0002093FC01883C910581F70E947207809167
:102BC000FD0180648093FD01FAE0CF2ED12CE12C31
:102BD000F12CA8EC8A2E912CA12CB12C00E010E055
:102BE000B8EC3B2E8091FC0183FFE8C02091F801F6
:102BF0003091F9014091FA015091FB01A3E0B0E05E
:102C00000E94DE1A6093F8017093F9018093FA0133
:102C10009093FB012091F6013091F7016091F8014A
:102C20007091F9018091FA019091FB0150E040E030
:102C30000E948E1A2093F8013093F9014093FA0113
:102C40005093FB01A091F501B0E028E43DE941E09B
:102C500050E00E94DE1A2091F8013091F901409174
:102C6000FA015091FB010E948E1ABA01A9014F5F2F
:102C70005F4F6F4F7F4F7695679557954795493CC6
:102C800051056105710508F0FEC08091FD0181FDCF
:102C9000FAC08091FC018F7B8093FC014093F4018A
:102CA0002091F8013091F9014091FA015091FB0116
:102CB000A0E9B1E00E94DE1A6093F8017093F90177
:102CC0008093FA019093FB016091F8017091F901F2
:102CD0008091FA019091FB010E94CA190E94361A54
:102CE0000E949B196093F8017093F9018093FA0197
:102CF0009093FB018091F8019091F901A091FA0164
:102D0000B091FB010196A11DB11D8093F801909334
:102D1000F901A093FA01B093FB018091F801909121
:102D2000F901A091FA01B091FB01B695A79597958D
:102D300087958093F8019093F901A093FA01B093DD
:102D4000FB016091F8017091F9018091FA01909175
:102D5000FB01A70196010E948E1A6093F301609116
:102D6000F8017091F9018091FA019091FB01A7019E
:102D700096010E948E1A30931901209318018091B8
:102D8000FC012436310508F08AC080688093FC017C
:102D90008091FD018B7F8093FD011092F401809161
:102DA000FC018F7D8093FC018091FC01877F8093E3
:102DB000FC018091FD0180628093FD018091FD0105
:102DC00085FFA2C08091FD01982F991F9927991F17
:102DD0008091FE018170880F892B813009F49BC09E
:102DE000823009F036C18091FD0186FF32C00E9419
:102DF000720740E060E082E094E00E94AD0741E0AD
:102E000060E086EE93E00E94AD0742E060E080ED76
:102E100093E00E94AD0743E060E089EB93E00E94FD
:102E2000AD0744E060E086E993E00E94AD0745E02D
:102E300060E08EE793E00E94AD0746E060E086E543
:102E400093E00E94AD0747E060E08EE293E00E94CD
:102E5000AD07C091F101D091F201CE0101978F3001
:102E60009742F8F0D093F001C093EF0141E064E2A3
:102E700089E293E00E94AD073DC02196C830D1059C
:102E800009F06BCE88CE3092F4019091FD018091D3
:102E9000FC018F7B91FF80648093FC0101CF8F77D1
:102EA00081CF8091EF019091F001C817D90721F4EB
:102EB0008091FD0186FF1EC0D093F001C093EF0109
:102EC00041E064E284E293E00E94AD0744E2C83E40
:102ED000F3E0DF0748F44AE2C436D10528F446E3BC
:102EE000CA30D10508F040E3BE0190E080E021E067
:102EF0000E94B3098091FD018F7B8093FD01809139
:102F0000FD018F7D8093FD010115110509F46ACE45
:102F10000E94000067CE8091FD0186FF36C00E94AE
:102F2000720740E060E084E093E00E94AD0741E07A
:102F300060E081EF92E00E94AD0742E060E08BED3F
:102F400092E00E94AD0743E060E084EC92E00E94D2
:102F5000AD0744E060E086EB92E00E94AD0745E0FB
:102F600060E088EA92E00E94AD078091FD0146E0B2
:102F700060E084FF68C080E892E00E94AD0747E00F
:102F800060E080E392E00E94AD07E091ED012091C6
:102F9000EE01F0E0EE0FFF1FE050FF4F80819181C6
:102FA0002817190621F48091FD0186FFA3CFE09137
:102FB000ED01F0E0EE0FFF1FE050FF4FA081A09366
:102FC000EE012091F1013091F201220F331FB0E0A8
:102FD0000E94CF1AA50194010E948E1A29013A017C
:102FE0008FEF481A580A680A780A769467945794BB
:102FF000479441E064E28BE292E00E94AD07C20197
:1030000044E2E8EE4E16E3E05E0640F44AE284361F
:10301000910520F446E30A9708F040E321E0C3015C
:10302000B2010E94B309E091ED01F0E0EE0FFF1F45
:10303000E45FFE4F8081918141E068E7892B31F0A8
:1030400089E292E017CF88E592E097CF87E292E09D
:1030500011CF8091FD0186FF2BC00E94720740E0D6
:1030600060E088E092E00E94AD0743E060E08DEE12
:1030700091E00E94AD0746E060E08BED91E00E9498
:10308000AD076091F1017091F2014EE1683EF3E00D
:103090007F0748F444E26436710528F440E36A305F
:1030A000710508F04AE290E080E026E00E94B30952
:1030B000C0911801D09119018091EB019091EC0120
:1030C0008C179D0721F48091FD0186FF1EC0D093CF
:1030D000EC01C093EB0140E06EE486ED91E00E94CC
:1030E000AD074EE4C83E23E0D20748F444E5C436B9
:1030F000D10528F440E6CA30D10508F04AE5BE0102
:1031000090E080E020E00E94B3096091F30180919B
:10311000EA01861304C08091FD0186FF09C0609317
:10312000EA0170E090E080E020E04CE60E94B30904
:103130004091E4015091E5016091E6017091E70151
:103140008091E8019091E901B0E0A0E08417950733
:10315000A607B70721F48091FD0186FF28C04090A3
:10316000E4015090E5016090E6017090E701E20112
:103170005092E9014092E80143E06EE181ED91E077
:103180000E94AD074EE188EE481683E0580640F4F1
:1031900044E2C436D10520F440E32A9708F04AE21D
:1031A000C301B2018827992723E00E94B3098091C7
:1031B000F5019091E301981304C08091FD0186FF11
:1031C00024C0C091F501C093E30143E06EE48CECB0
:1031D00091E00E94AD076C2F669544E5643620F4BB
:1031E0004AE56A3008F440E670E090E080E023E0D1
:1031F0000E94B3092C2F217030E0A5E0B0E00E94BE
:10320000CF1A23E04CE60E94B3098091FD018F7B29
:103210008093FD018091FC0187FD0DC08091FD012F
:1032200080FD09C08091FC0186FD3DC041E060E069
:1032300082E791E004C041E060E08CEA91E00E9406
:10324000AD078091FD0182FF36C0C091E20144E0EC
:1032500060E086E591E00E94AD0785E08C1B682F59
:10326000660F680F660F44E08DE291E00E9412083D
:103270008FE08C0F682F660F680F660F44E08FE2B7
:1032800091E00E941208CF5FC63090F4C093E20133
:103290008091FC0147E060E085FF14C086E291E088
:1032A0000E94AD072CCE41E060E088E891E0C7CFF6
:1032B0001092E201EDCF44E060E080E491E00E94F2
:1032C000AD07E6CF88E191E0EBCFF999FECF92BD53
:1032D00081BDF89A992780B50895A8E1B0E042E051
:1032E00050E00C948D19262FF999FECF92BD81BD27
:1032F000F89A019700B4021639F01FBA20BD0FB634
:10330000F894FA9AF99A0FBE08950196272F0E9411
:1033100074190C947319DC01CB01FC01F999FECFEF
:1033200006C0F2BDE1BDF89A319600B40D9241504D
:103330005040B8F708950E940F1A88F09F5798F0F0
:10334000B92F9927B751B0F0E1F0660F771F881FAA
:10335000991F1AF0BA95C9F714C0B13091F00E94C4
:10336000291AB1E008950C94291A672F782F88271D
:10337000B85F39F0B93FCCF3869577956795B395EB
:10338000D9F73EF490958095709561957F4F8F4F5A
:103390009F4F0895E89409C097FB3EF4909580955F
:1033A000709561957F4F8F4F9F4F9923A9F0F92F0B
:1033B00096E9BB279395F695879577956795B79589
:1033C000F111F8CFFAF4BB0F11F460FF1BC06F5F6F
:1033D0007F4F8F4F9F4F16C0882311F096E911C081
:1033E000772321F09EE8872F762F05C0662371F0A2
:1033F00096E8862F70E060E02AF09A95660F771FB6
:10340000881FDAF7880F9695879597F9089557FDE5
:103410009058440F551F59F05F3F71F04795880F42
:1034200097FB991F61F09F3F79F0879508951216D9
:1034300013061406551FF2CF4695F1DF08C0161685
:1034400017061806991FF1CF869571056105089436
:103450000895E894BB2766277727CB0197F908954D
:1034600019F416F40C94841A0C94761A0E940F1A0C
:10347000B8F39923C9F3B6F39F57550B87FF0E9402
:10348000871A0024A0E640EA900180585695979547
:1034900028F4805C660F771F881F20F026173707F7
:1034A000480730F4621B730B840B202931294A2B07
:1034B000A69517940794202531254A2758F7660FBB
:1034C000771F881F20F026173707480730F4620B54
:1034D000730B840B200D311D411DA09581F7B9019F
:1034E000842F9158880F9695879508959F3F31F0C6
:1034F000915020F4879577956795B795880F911D22
:103500009695879597F908959FEF80EC08959150CF
:103510005040660F771F881FD2F70895A1E21A2E38
:10352000AA1BBB1BFD010DC0AA1FBB1FEE1FFF1F67
:10353000A217B307E407F50720F0A21BB30BE40BB7
:10354000F50B661F771F881F991F1A9469F76095FE
:103550007095809590959B01AC01BD01CF010895B8
:10356000052E97FB1EF400940E94C71A57FD07D042
:103570000E948E1A07FC03D04EF40C94C71A509583
:103580004095309521953F4F4F4F5F4F089590954F
:103590008095709561957F4F8F4F9F4F0895A29FA3
:1035A000B001B39FC001A39F700D811D1124911D17
:1035B000B29F700D811D1124911D08950E94CF1A94
:1035C000A59F900DB49F900DA49F800D911D112477
:1035D0000895EE0FFF1F0590F491E02D0994F894E3
:1035E000FFCF2800500064007800A000C800000051
:1035F00000000000000000000000E6009B0000004A
:1036000000FD06D006610AA606C906B606A7063C56
:04361000003E000078
:107E0000112484B714BE81FFF0D085E080938100F7
:107E100082E08093C00088E18093C10086E0809377
:107E2000C20080E18093C4008EE0C9D0259A86E02C
:107E300020E33CEF91E0309385002093840096BBD3
:107E4000B09BFECF1D9AA8958150A9F7CC24DD24C4
:107E500088248394B5E0AB2EA1E19A2EF3E0BF2EE7
:107E6000A2D0813461F49FD0082FAFD0023811F036
:107E7000013811F484E001C083E08DD089C08234E0
:107E800011F484E103C0853419F485E0A6D080C0E4
:107E9000853579F488D0E82EFF2485D0082F10E0AE
:107EA000102F00270E291F29000F111F8ED06801E7
:107EB0006FC0863521F484E090D080E0DECF843638
:107EC00009F040C070D06FD0082F6DD080E0C81688
:107ED00080E7D80618F4F601B7BEE895C0E0D1E017
:107EE00062D089930C17E1F7F0E0CF16F0E7DF06D8
:107EF00018F0F601B7BEE89568D007B600FCFDCFD4
:107F0000A601A0E0B1E02C9130E011968C91119780
:107F100090E0982F8827822B932B1296FA010C0160
:107F200087BEE89511244E5F5F4FF1E0A038BF0790
:107F300051F7F601A7BEE89507B600FCFDCF97BE46
:107F4000E89526C08437B1F42ED02DD0F82E2BD052
:107F50003CD0F601EF2C8F010F5F1F4F84911BD097
:107F6000EA94F801C1F70894C11CD11CFA94CF0C13
:107F7000D11C0EC0853739F428D08EE10CD085E9AC
:107F80000AD08FE07ACF813511F488E018D01DD067
:107F900080E101D065CF982F8091C00085FFFCCF94
:107FA0009093C60008958091C00087FFFCCF809118
:107FB000C00084FD01C0A8958091C6000895E0E648
:107FC000F0E098E1908380830895EDDF803219F02E
:107FD00088E0F5DFFFCF84E1DECF1F93182FE3DFCA
:107FE0001150E9F7F2DF1F91089580E0E8DFEE27F6
:047FF000FF270994CA
:027FFE00040479
:00000001FF
